:020000040800F2
:104000000004002011530008D9A50908DDA50908FE
:1040100045A60908DDA5090811A6090813530008DB
:10402000135300081353000813530008BDBC1108B4
:1040300013530008135300081353000813530008C8
:1040400013530008135300081353000813530008B8
:1040500013530008135300085163120881631208B8
:10406000B1631208E16312081164120895C51108C2
:10407000C1C51108F1C5110821C6110851C61108A2
:104080007DC61108ADC61108EDC3110801A10908CC
:1040900035A109086DA109081353000841641208ED
:1040A0001353000813530008135300081353000858
:1040B00013530008135300081353000855CF110879
:1040C0006DCF110899CF1108B1CF11081353000813
:1040D0001353000821E2110839E2110851E21108D6
:1040E000AD6412081353000813530008135300085B
:1040F000135300081353000813530008DDC61108BA
:1041000013530008F9D31108A56C120813530008C3
:1041100069E21108135300081353000813530008F1
:104120000DC7110839C7110869C7110899C71108C7
:10413000C9C711081353000813530008135300088C
:10414000135300081353000813530008AD5E120800
:10415000F5C7110825C8110855C8110813530008E0
:104160001353000813530008135300081353000897
:104170001353000813530008135300081353000887
:10418000135300081353000881E2110899E2110843
:104190001353000813530008135300081353000867
:1041A0001353000813530008135300081353000857
:1041B0001353000813530008135300081353000847
:1041C0001353000813530008135300081353000837
:1041D0001353000813530008135300081353000827
:1041E000297A0008D5AD0008B942010865FD01082B
:1041F0009116020885220208614C02081554020833
:104200009DAC0208D1CD0208813203082DF60308C7
:1042100081700408B9720408DD9D04088DA10408AA
:10422000D9B104082DDB04087D610508216A050861
:10423000D16D0508F1E205083D0206087530070852
:10424000D58107088D8E0708BDCA07088D35090876
:10425000A5A1090841A4090829AA09088D490B0844
:10426000B5690B08E16E0B08F57E0B0809980B0881
:104270003D980B08B5C50B08510E0C0859310C08B8
:10428000C1310C08FD620C08ED420F08C14B0F084C
:104290007D8C0F08F9C90F08BD3B10081D4310089D
:1042A00055671008ED9010080000000000000000A5
:1042B00081F0004102E000BF83F0004330B54FEAD7
:1042C00041044FEA430594EA050F08BF90EA020F44
:1042D0001FBF54EA000C55EA020C7FEA645C7FEAD7
:1042E000655C00F0E2804FEA5454D4EB5555B8BFFA
:1042F0006D420CDD2C4480EA020281EA030382EA6B
:10430000000083EA010180EA020281EA0303362DFC
:1043100088BF30BD11F0004F4FEA01314FF4801CCF
:104320004CEA113102D0404261EB410113F0004FE1
:104330004FEA03334CEA133302D0524263EB430398
:1043400094EA050F00F0A780A4F10104D5F1200E36
:104350000DDB02FA0EFC22FA05F2801841F1000191
:1043600003FA0EF2801843FA05F359410EE0A5F165
:1043700020050EF1200E012A03FA0EFC28BF4CF096
:10438000020C43FA05F3C01851EBE37101F000454C
:1043900007D54FF0000EDCF1000C7EEB00006EEB59
:1043A0000101B1F5801F1BD3B1F5001F0CD34908E3
:1043B0005FEA30004FEA3C0C04F101044FEA44523A
:1043C00012F5800F80F09A80BCF1004F08BF5FEAC1
:1043D000500C50F1000041EB045141EA050130BDA1
:1043E0005FEA4C0C404141EB010111F4801FA4F144
:1043F0000104E9D191F0000F04BF01460020B1FA99
:1044000081F308BF2033A3F10B03B3F120020CDAD0
:104410000C3208DD02F1140CC2F10C0201FA0CF0AE
:1044200021FA02F10CE002F11402D8BFC2F1200C13
:1044300001FA02F120FA0CFCDCBF41EA0C019040C9
:10444000E41AA2BF01EB0451294330BD6FEA040412
:104450001F3C1CDA0C340EDC04F11404C4F12002FD
:1044600020FA04F001FA02F340EA030021FA04F30F
:1044700045EA030130BDC4F10C04C4F1200220FA66
:1044800002F001FA04F340EA0300294630BD21FAA4
:1044900004F0294630BD94F0000F83F4801306BF6A
:1044A00081F480110134013D4EE77FEA645C18BF5E
:1044B0007FEA655C29D094EA050F08BF90EA020FF5
:1044C00005D054EA000C04BF1946104630BD91EAED
:1044D000030F1EBF0021002030BD5FEA545C05D1F0
:1044E0004000494128BF41F0004130BD14F580042F
:1044F0003CBF01F5801130BD01F0004545F0FE41A3
:1045000041F470014FF0000030BD7FEA645C1ABFD7
:10451000194610467FEA655C1CBF0B46024650EA0E
:10452000013406BF52EA033591EA030F41F400213A
:1045300030BD00BF90F0000F04BF0021704730B5C0
:104540004FF4806404F132044FF000054FF0000195
:1045500050E700BF90F0000F04BF0021704730B556
:104560004FF4806404F1320410F0004548BF40422B
:104570004FF000013EE700BF42004FEAE2014FEA80
:1045800031014FEA02701FBF12F07F4393F07F4F5B
:1045900081F06051704792F0000F14BF93F07F4F8D
:1045A000704730B54FF4607401F0004521F00041D0
:1045B00020E700BF50EA010208BF704730B54FF056
:1045C00000050AE050EA010208BF704730B511F05B
:1045D000004502D5404261EB41014FF4806404F193
:1045E00032045FEA915C3FF4DCAE4FF003025FEA15
:1045F000DC0C18BF03325FEADC0C18BF033202EB9D
:10460000DC02C2F1200300FA03FC20FA02F001FAF6
:1046100003FE40EA0E0021FA02F11444C1E600BF95
:1046200070B54FF0FF0C4CF4E06C1CEA11541DBF48
:104630001CEA135594EA0C0F95EA0C0F00F0DEF813
:104640002C4481EA030621EA4C5123EA4C5350EAF8
:10465000013518BF52EA033541F4801143F4801349
:1046600038D0A0FB02CE4FF00005E1FB02E506F0DA
:104670000042E0FB03E54FF00006E1FB03569CF02F
:10468000000F18BF4EF0010EA4F1FF04B6F5007F35
:1046900064F5407404D25FEA4E0E6D4146EB0606A7
:1046A00042EAC62141EA55514FEAC52040EA5E5030
:1046B0004FEACE2EB4F1FD0C88BFBCF5E06F1ED8DA
:1046C000BEF1004F08BF5FEA500E50F1000041EB11
:1046D000045170BD06F0004646EA010140EA0200BE
:1046E00081EA0301B4EB5C04C2BFD4EB0C0541EAE0
:1046F000045170BD41F480114FF0000E013C00F3F5
:10470000AB8014F1360FDEBF002001F0004170BD18
:10471000C4F10004203C35DA0C341BDC04F1140431
:10472000C4F1200500FA05F320FA04F001FA05F2BD
:1047300040EA020001F0004221F0004110EBD3708A
:1047400021FA04F642EB06015EEA430E08BF20EAB6
:10475000D37070BDC4F10C04C4F1200500FA04F359
:1047600020FA05F001FA04F240EA020001F00041EB
:1047700010EBD37041F100015EEA430E08BF20EA5E
:10478000D37070BDC4F1200500FA05F24EEA020EA6
:1047900020FA04F301FA05F243EA020321FA04F0D5
:1047A00001F0004121FA04F220EA020000EBD3708C
:1047B0005EEA430E08BF20EAD37070BD94F0000F8C
:1047C0000FD101F00046400041EB010111F4801FC0
:1047D00008BF013CF7D041EA060195F0000F18BF71
:1047E000704703F00046520043EB030313F4801FAD
:1047F00008BF013DF7D043EA0603704794EA0C0F67
:104800000CEA135518BF95EA0C0F0CD050EA41067C
:1048100018BF52EA4306D1D181EA030101F00041F9
:104820004FF0000070BD50EA410606BF1046194621
:1048300052EA430619D094EA0C0F02D150EA01362D
:1048400013D195EA0C0F05D152EA03361CBF10466E
:1048500019460AD181EA030101F0004141F0FE410D
:1048600041F470014FF0000070BD41F0FE4141F491
:10487000780170BD70B54FF0FF0C4CF4E06C1CEA91
:1048800011541DBF1CEA135594EA0C0F95EA0C0F46
:1048900000F0A7F8A4EB050481EA030E52EA033501
:1048A0004FEA013100F088804FEA03334FF0805522
:1048B00045EA131343EA12634FEA022245EA11154F
:1048C00045EA10654FEA00260EF000419D4208BF00
:1048D000964244F1FD0404F5407402D25B084FEAAD
:1048E0003202B61A65EB03055B084FEA32024FF459
:1048F00080104FF4002CB6EB020E75EB030E22BFB6
:10490000B61A754640EA0C005B084FEA3202B6EB75
:10491000020E75EB030E22BFB61A754640EA5C0024
:104920005B084FEA3202B6EB020E75EB030E22BFB4
:10493000B61A754640EA9C005B084FEA3202B6EBB5
:10494000020E75EB030E22BFB61A754640EADC0074
:1049500055EA060E18D04FEA051545EA16754FEAD6
:1049600006164FEAC30343EA52734FEAC2025FEAF4
:104970001C1CC0D111F4801F0BD141EA00014FF083
:1049800000004FF0004CB6E711F4801F04BF014354
:104990000020B4F1FD0C88BFBCF5E06F3FF6AFAE70
:1049A000B5EB030C04BFB6EB020C5FEA500C50F100
:1049B000000041EB045170BD0EF0004E4EEA113183
:1049C00014EB5C04C2BFD4EB0C0541EA045170BD8A
:1049D00041F480114FF0000E013C90E645EA060ECE
:1049E0008DE60CEA135594EA0C0F08BF95EA0C0FFC
:1049F0003FF43BAF94EA0C0F0AD150EA01347FF444
:104A000034AF95EA0C0F7FF425AF104619462CE71A
:104A100095EA0C0F06D152EA03353FF4FDAE10467D
:104A2000194622E750EA410618BF52EA43067FF4CE
:104A3000C5AE50EA41047FF40DAF52EA43057FF45E
:104A4000EBAE12E74FF0FF3C06E000BF4FF0010C69
:104A500002E000BF4FF0010C4DF804CD4FEA410CCD
:104A60007FEA6C5C4FEA430C18BF7FEA6C5C1BD09A
:104A700001B050EA410C0CBF52EA430C91EA030F1B
:104A800002BF90EA020F0020704710F1000F91EA78
:104A9000030F58BF994208BF90422CBFD8176FEA46
:104AA000E37040F0010070474FEA410C7FEA6C5C14
:104AB00002D150EA013C07D14FEA430C7FEA6C5C1B
:104AC000D6D152EA033CD3D05DF8040B704700BF47
:104AD0008446104662468C461946634600E000BF95
:104AE00001B5FFF7B7FF002848BF10F1000F01BD67
:104AF0004DF808EDFFF7F4FF0CBF012000205DF832
:104B000008FB00BF4DF808EDFFF7EAFF34BF0120B6
:104B100000205DF808FB00BF4DF808EDFFF7E0FF4F
:104B200094BF012000205DF808FB00BF4DF808EDA0
:104B3000FFF7CEFF94BF012000205DF808FB00BF07
:104B40004DF808EDFFF7C4FF34BF012000205DF8E9
:104B500008FB00BF4FEA410C7FEA6C5C02D150EACF
:104B6000013C0AD14FEA430C7FEA6C5C02D152EA65
:104B7000033C02D14FF0000070474FF00100704736
:104B80004FEA410212F5001215D211D56FF4787375
:104B9000B3EB625212D94FEAC12343F0004343EA18
:104BA000505311F0004F23FA02F018BF40427047F3
:104BB0004FF00000704750EA013005D111F000407D
:104BC00008BF6FF0004070474FF00000704700BF13
:104BD0004A0011D212F5001211D20DD56FF478737C
:104BE000B3EB62520ED44FEAC12343F0004343EAD1
:104BF000505323FA02F070474FF00000704750EA1C
:104C0000013002D14FF0FF3070474FF00000704785
:104C10004FEA4102B2F1E04324BFB3F5001CDCF1DE
:104C2000FE5C0DD901F0004C4FEAC0024CEA507016
:104C3000B2F1004F40EB830008BF20F00100704745
:104C400011F0804F21D113F13872BCBF01F0004048
:104C5000704741F480114FEA5252C2F11802C2F17A
:104C6000200C10FA0CF320FA02F018BF40F00100FB
:104C70004FEAC1234FEAD32303FA0CFC40EA0C00AD
:104C800023FA02F34FEA4303CCE77FEA625307D1EA
:104C900050EA01331EBF4FF0FE4040F44000704721
:104CA00001F0004040F0FE4040F40000704700BFBB
:104CB00080F0004002E000BF81F0004142001FBFD1
:104CC0005FEA410392EA030F7FEA226C7FEA236CDA
:104CD0006AD04FEA1262D2EB1363C1BFD2184140CF
:104CE00048404140B8BF5B42192B88BF704710F065
:104CF000004F40F4000020F07F4018BF404211F008
:104D0000004F41F4000121F07F4118BF494292EA6F
:104D1000030F3FD0A2F1010241FA03FC10EB0C009B
:104D2000C3F1200301FA03F100F0004302D5494228
:104D300060EB4000B0F5000F13D3B0F1807F06D3D5
:104D400040084FEA310102F10102FE2A51D2B1F1CD
:104D5000004F40EBC25008BF20F0010040EA0300C2
:104D60007047490040EB000010F4000FA2F101026F
:104D7000EDD1B0FA80FCACF1080CB2EB0C0200FAF9
:104D80000CF0AABF00EBC25052421843BCBFD04047
:104D90001843704792F0000F81F4000106BF80F4C1
:104DA00000000132013BB5E74FEA41037FEA226C84
:104DB00018BF7FEA236C21D092EA030F04D092F04F
:104DC000000F08BF0846704790EA010F1CBF002083
:104DD000704712F07F4F04D1400028BF40F00040E0
:104DE000704712F100723CBF00F50000704700F000
:104DF000004343F0FE4040F4000070477FEA226227
:104E000016BF08467FEA23630146420206BF5FEAF7
:104E1000412390EA010F40F4800070474FF00003F7
:104E200004E000BF10F0004348BF40425FEA000CBE
:104E300008BF704743F0964301464FF000001CE066
:104E400050EA010208BF70474FF000030AE000BFBC
:104E500050EA010208BF704711F0004302D54042FA
:104E600061EB41015FEA010C02BF8446014600206C
:104E700043F0B64308BFA3F18053A3F50003BCFA87
:104E80008CF2083AA3EBC25310DB01FA02FC634434
:104E900000FA02FCC2F12002BCF1004F20FA02F23B
:104EA00043EB020008BF20F00100704702F120022E
:104EB00001FA02FCC2F1200250EA4C0021FA02F28F
:104EC00043EB020008BF20EADC7070477BB972B97F
:104ED0000029BEBF00204FF0004106E008BF0028B7
:104EE0001CBF6FF000414FF0FF3000F00FBAADF182
:104EF000080C6DE904CE002909DB002B1ADB00F059
:104F000097F8DDF804E0DDE9022304B07047404281
:104F100061EB4101002B1BDB00F08AF8DDF804E0B7
:104F2000DDE9022304B0404261EB4101524263EBF0
:104F300043037047524263EB430300F079F8DDF816
:104F400004E0DDE9022304B0404261EB4101704717
:104F5000524263EB430300F06BF8DDF804E0DDE957
:104F6000022304B0524263EB4303704753B94AB97A
:104F7000002908BF00281CBF4FF0FF314FF0FF3061
:104F800000F0C4B9ADF1080C6DE904CE00F050F8A2
:104F9000DDF804E0DDE9022304B07047430803F0C4
:104FA0005533C01A830803F0333300F0333018440C
:104FB00000EB101000F00F3000EB002000EB004081
:104FC000000E704780EA104080EA102080EA10103E
:104FD00046F6961300F00F0043FA00F000F00100CF
:104FE000704700BFD0B5FFF7C7FA00220E4B064648
:104FF0000F46FFF715FBFFF7EBFD0446FFF79AFAA4
:1050000000220A4BFFF70CFB02460B46304639469E
:10501000FFF752F9FFF7DCFD2346002242EA0002C7
:1050200010461946D0BD00BF0000F03D0000F04121
:105030002DE9F0478C460D460446089E002B51D1C1
:105040008A4217466DD9B2FA82FEBEF1000F0BD02C
:10505000CEF1200C01FA0EF520FA0CFC02FA0EF744
:105060004CEA050C00FA0EF44FEA174A250CBCFB7B
:10507000FAF81FFA87F90AFB18CC45EA0C4508FB39
:1050800009F3AB420AD9ED1908F1FF3280F0238110
:10509000AB4240F22081A8F102083D44ED1AA4B2CF
:1050A000B5FBFAF00AFB105544EA054400FB09F988
:1050B000A14509D9E41900F1FF3380F00A81A14527
:1050C00040F2078102383C44A4EB090440EA08405E
:1050D0000021002E61D024FA0EF4002334607360A6
:1050E000BDE8F0878B4207D9002E54D0002186E816
:1050F00021000846BDE8F087B3FA83F1002940F0AB
:105100008E80AB4202D3824200F2FA80841A65EBB1
:1051100003050120AC46002E3FD086E81010BDE804
:10512000F08712B90127B7FBF2F7B7FA87FEBEF195
:10513000000F34D1EB1B3A0C1FFA87FC0121B3FBA3
:10514000F2F8250C02FB183345EA03450CFB08F383
:10515000AB4207D9ED1908F1FF3002D2AB4200F2A1
:10516000D1808046ED1AA3B2B5FBF2F002FB1055D8
:1051700043EA05440CFB00FCA44507D9E41900F1FF
:10518000FF3302D2A44500F2B8801846A4EB0C0409
:1051900040EA08409DE731463046BDE8F087CEF151
:1051A000200405FA0EF307FA0EF720FA04F83A0C79
:1051B00025FA04F448EA0308B4FBF2F14FEA184573
:1051C00002FB11441FFA87FC45EA044501FB0CF37E
:1051D000AB4200FA0EF409D9ED1901F1FF3080F06D
:1051E0008A80AB4240F2878002393D44EB1A1FFAB5
:1051F00088F5B3FBF2F002FB103345EA034500FBF0
:105200000CF3AB4207D9ED1900F1FF386FD2AB4276
:105210006DD902383D44EB1A40EA01418FE7C1F1F4
:10522000200722FA07F88B4005FA01F448EA030345
:1052300020FA07FE4FEA134CFD404EEA040EB5FB80
:10524000FCF94FEA1E440CFB19551FFA83F844EA97
:10525000054509FB08F4AC4202FA01F200FA01FA32
:1052600008D9ED1809F1FF3043D2AC4241D9A9F178
:1052700002091D442D1B1FFA8EFEB5FBFCF00CFB32
:1052800010554EEA054400FB08F8A04507D9E4187C
:1052900000F1FF3529D2A04527D902381C4440EA45
:1052A0000940A4EB0804A0FB02894C45C6464D46C4
:1052B00015D312D056B1BAEB0E0364EB050404FA11
:1052C00007F7CB401F43CC40376074600021BDE836
:1052D000F0871846F8E69046E0E6C245EAD2B8EB19
:1052E000020E69EB03050138E4E72846D7E740469C
:1052F00091E78146BEE7014678E702383C4445E73E
:10530000084608E7A8F102083D442BE7704700BFB4
:1053100002E000F000F8FEE772B6394880F3088832
:10532000384880F3098838484EF60851CEF200011B
:10533000086040F20000CCF200004EF63471CEF26C
:1053400000010860BFF34F8FBFF36F8F40F2000082
:10535000C0F2F0004EF68851CEF200010860BFF3B3
:105360004F8FBFF36F8F4FF00000E1EE100A4EF643
:105370003C71CEF200010860062080F31488BFF370
:105380006F8F20F1DDF91BF1D1FD4FF055301F4932
:105390001B4A91423CBF41F8040BFAE71C49194AE9
:1053A00091423CBF41F8040BFAE71A491A4A1B4BD9
:1053B0009A423EBF51F8040B42F8040BF8E7002074
:1053C0001749184A91423CBF41F8040BFAE720F113
:1053D000BBF91BF171FE144C144DAC4203DA54F8C6
:1053E000041B8847F9E702F00FFB114C114DAC424A
:1053F00003DA54F8041B8847F9E720F1A3B9000049
:1054000000040020002400200040000800000020CC
:1054100000040020C07A150800240020F028002095
:10542000F0280020905A0120E0410008A84200081E
:10543000A8420008A84200082DE9F04F2DED108A7F
:10544000C1F80CD0C3689D46BDEC108ABDE8F08F52
:105450001BF19AF9002383F311882846A047002006
:105460001BF1CCFB1BF18AF91BF1B6F81BF18CF98F
:1054700000DFFEE701F0FF01102A2BDB10F0070F21
:1054800008D010F8013B013A8B422DD010F0070FE5
:1054900042B3F6D1F0B441EA012141EA014122F0E0
:1054A00007047FF000070023F0E80256083C85EA75
:1054B000010586EA010685FA47F5A3FA87F586FA1B
:1054C00047F6A5FA87F68EB9EED1F0BC01F0FF01E0
:1054D00002F0070232B110F8013B013A83EA0103FE
:1054E00013B1F8D10020704701387047002D06BF76
:1054F00035460338073815F0010F07D1013015F490
:10550000807F02BF013015F4C03F0130F0BC01388C
:10551000704700BFEC46A0E8F05F4FF00000704716
:10552000B0E8F05FE546080008BF0120704700BF03
:1055300010F8012B11F8013B012A28BF9A42F7D03D
:10554000D01A7047034613F8012B002AFBD1181A12
:105550000138704700207047084A13780133DBB2E6
:105560001D2B05D900231370036801219B68184780
:105570001370036800219B68184700BF00240020B7
:105580008368012B01D09B0632D5F0B542F2385327
:105590007B4CE35691B00E460546B3B143F2DC12A4
:1055A00042F23A53A258E35EB2F90A1003F10A023A
:1055B000914206DC32462846724B20218CF0C0FC1A
:1055C00013E040F28D329342F4DD42F2F84341F6AB
:1055D0005832E35AA3F57A739BB293420AD9324602
:1055E0002846694B20218CF0ABFC002011B0F0BDA7
:1055F0000120704743F68C33644AE35892ED007AF9
:10560000D3ED097AB4EEE77AF1EE10FA1FDC92EDF1
:10561000017AD3ED0A7AB4EEE77AF1EE10FA16DCED
:1056200042F23453E35E002B64DD42F22073E35C0C
:105630000D2B13D84FF4215222FA03F3D9070DD5BD
:1056400032462846524B20218CF07AFCCDE7324678
:105650002846504B20218CF073FCC6E743F20463CC
:10566000E05886F0A7FC30B9324628464A4B202144
:105670008CF066FCB9E7494810F01CFA012827D0E5
:1056800043F2FD53E35CDB061BD443F690334449FD
:10569000E05803AA322381F085FF48B143F68C32EB
:1056A0003223A0583F4903AA80F052FA00289DD126
:1056B00003AB0093324628463B4B20218CF040FC44
:1056C00093E732462846394B20218CF039FC8CE791
:1056D00043F69433E05883F0DBFE01281CD0022807
:1056E0000FD00028CCD132462846314B20218CF0F7
:1056F00027FC7AE7324628462E4B20218CF020FCEE
:1057000073E743F68853E35693B9324628462A4B4B
:1057100020218CF015FC68E743F27C23E35CDA0778
:1057200017D432462846254B20218CF009FC5CE733
:1057300003AA0DF10A01224847F066F8BDF80A30C5
:10574000002B9DD0324628461E4B20218CF0F8FBC2
:105750004BE719211C4845F04DFC0028E1D042F2EE
:10576000105319211848E75E45F054FC874287DD45
:1057700032462846154B20218CF0E2FB35E700BF6E
:10578000F8280020B4DE1208C8DE1208604E00209F
:10579000F4DE1208D8DE1208C8DD12089876002060
:1057A00098DE1208B0DE12089CDE120880DE1208B5
:1057B000E0DD1208B0DD120830DE120814DF120836
:1057C0008066002054DE1208B03A002004DE120881
:1057D0002DE9F04F43F20463444FFB5885B093F832
:1057E0006A4002900391002C3DD020218CF09EFB5A
:1057F000804618B9204605B0BDE8F08F1FF024FAA6
:1058000090F82250002DF5D00026B146B346B2469E
:1058100004E05FFA81FAAA45D34612DA1FF014FABF
:105820000AF10101BBF1000FF3D190F82020032A07
:1058300008BF56465FFA81FA08BFC146AA45D3465B
:10584000ECDBB9F1000FD5D043F20465785986F04E
:1058500091FBB0F57A7F0DD003990298244A8CF021
:1058600003FD0024C6E7234A8CF0FEFC204605B069
:10587000BDE8F08F785986F08DFBB0F5FA6F06D051
:10588000039902981C4A8CF0EFFC0024B2E73046E2
:1058900071F0B4FA0646785903681B6A98474FF0CE
:1058A000000E0122B6F8E4C117467346714607FAA6
:1058B00001F5284202F10106114608D01CEA050F45
:1058C00005D10133DBB2BEF1000F08BF96460F29A8
:1058D000F2B2ECDD002B8DD0CDF800E003990298F8
:1058E000064A8CF0C1FC002484E700BFF8280020A1
:1058F00034DD120814DD120858DD12087CDD1208B0
:105900008368012B01D05B061AD5104B42F2385246
:105910009A56AAB110B543F2DC1442F23A521C591D
:105920009A5EB4F906309A4282B00BDD084B0093C0
:105930000A46084B40218CF003FB002002B010BD4A
:1059400001207047012002B010BD00BFF8280020E0
:1059500020E01208AC75140870B58EB005460E46EE
:10596000322201A90C4870F06FFA044640B99DF943
:10597000043043B101AB31462846084A8CF074FC30
:1059800020460EB070BD28463146054B034A8CF0C8
:105990006BFC20460EB070BD60590020AC75140839
:1059A00038E012082DE9F0478EB00F46064619F090
:1059B000D3FE0368D3F8C83004469847054680B93B
:1059C000236820469B6A9847434B444A002818BFE7
:1059D0000346394630468CF047FC28460EB0BDE8F9
:1059E000F08744F2A873DFF8048158F803000368D5
:1059F0009B68984781463A486DF0A4FDB9F1000FC5
:105A000041D110F0060FE8D0404615F053F8034698
:105A1000002853D004A9204619F022FD18B19DF8A2
:105A200011305B0651D400230B930C930D93099313
:105A30000A932368DFF8C48009A908AA0DF12C098C
:105A400002910192CDF80090D3F8E8A006AA07AB26
:105A500005A92046D047D8ED007AF5EEC07AF1EEE0
:105A600010FA1DDD484637F0ABFAD8ED007AB4EEF7
:105A7000E70AF1EE10FA13DB39463046194A8CF08A
:105A8000F3FB0025A9E7404615F014F8034600286B
:105A9000C0D139463046144A1D468CF0E5FB9CE7E0
:105AA00004F5A071114805F0D1FD002895D03946C4
:105AB00030460F4A8CF0D8FB00258EE73946304639
:105AC0000C4A1D468CF0D0FB87E7394630460A4A1F
:105AD0008CF0CAFB002580E790DF1208AC75140833
:105AE0005065002008E01208A4DF1208F828002002
:105AF000F4DF1208BCDF1208E4DF12084C4E00206D
:105B000070B5836813F0210F8EB011D00D46044696
:105B10008DF020FE064658B13222002101A824F162
:105B2000D1FA304601A932228DF0E4FD064618B1C3
:105B3000012630460EB070BD204601AB2946034A0F
:105B40008CF092FB30460EB070BD00BFAC751408EF
:105B500070B544F2A8730C4C0546E0580368DB6846
:105B60000E46984710B10124204670BD204614F01F
:105B7000B3FF04460028F6D128463146034A8CF08C
:105B800073FB204670BD00BFF828002058DC1208C7
:105B900070B505460E46FFF705FF064B0446314635
:105BA0002846DC71FFF7D4FF002814BF20460020F0
:105BB00070BD00BFE07D00202DE9F04F43F204638B
:105BC0003A4EF35893F8685081B01DB1284601B0A1
:105BD000BDE8F08F0F46044659F0A6FD202159F08C
:105BE000E9FB70B159F0A0FD1F2159F0E3FB40B172
:105BF000204639462E4A8CF037FB284601B0BDE8D6
:105C0000F08F43F2DA53F35C03F01403142B47D004
:105C1000A368BBB3394620468DF02CF9394682463D
:105C20002046FFF7ADFC394683462046FFF7D0FDFE
:105C3000394681462046FFF763FE394680462046B6
:105C4000FFF78AFE43F2FD53F35C9B0722D40AEA76
:105C50000B0509EA050508EA05052840C5B23946DD
:105C60002046FFF74DFF394605402046FFF770FFFD
:105C70003946054020468DF041FB0540284601B0DD
:105C8000BDE8F08F23681B6B3946204601B0BDE8A4
:105C9000F04F1847074A394620468CF0E5FADEE710
:105CA000054A394620468CF0DFFAB1E7F828002093
:105CB00060DF120838DF120848DF120810B5FFF75E
:105CC0007BFF054A054943F2D8538871D15C60F3E4
:105CD0000411D15410BD00BFF8280020E07D002041
:105CE000F0B583B005460E468CF0A0F9044620B30B
:105CF000AB68012B01D09A071FD5154885F042FAF1
:105D0000C0F3072010F0010717D1830715D51048FD
:105D100085F0E0F90F4A9FED107A43F63833D358F7
:105D200007EE903AF8EEE77A30EE670AB0EEC00A76
:105D3000B4EEC70AF1EE10FA02DC204603B0F0BD63
:105D400032462846054B02213C468CF0F9F8F4E730
:105D500064640020F82800200000C8429CDD12087E
:105D6000F0B5054691B00F468CF030FBAB68012BC7
:105D7000044601D05B070CD53222002103A824F190
:105D8000A1F924F085FF03A9322224F03FFD064645
:105D900010B1204611B0F0BD03AB009328463A463F
:105DA000034B04218CF0CCF83446204611B0F0BDF2
:105DB000AC751408F0B5054683B00E468CF0D0FCE7
:105DC000AB68012B044601D0DB0605D5094885F0F8
:105DD000D9F910F0010702D0204603B0F0BD2846E3
:105DE0003246054B10218CF0ABF83C46204603B000
:105DF000F0BD00BF6464002000DD120838B5044621
:105E00000D468CF0D7F928B1A368012B03D01B06EF
:105E100001D438BD38BD094A43F63533D35C2BB9BC
:105E200029462046BDE838408CF034BD20462A463D
:105E3000034B80218CF084F8002038BDF828002026
:105E40007CDF1208F0B543F2D812124C85B043F251
:105E5000D41643F2DC1543F2E013A258E358A659D6
:105E6000655901926A46039300960F4606460295CD
:105E70008DF074F93946054630468CF08DF843F2C2
:105E8000D8522840A35C60F3C303C3F3C000A354FB
:105E900005B0F0BDF82800202DE9F04105460F4679
:105EA000FFF780FD28B91F4B0024DC712046BDE8B8
:105EB000F08144F2A8731C4E0446F05803689B68B6
:105EC0009847804619486DF03DFBB8F1000F1ED091
:105ED000AB68012B07D01B0705D4124B0122DA71E6
:105EE0002046BDE8F08196F8783403EB431306EBC7
:105EF000830342F21E51B3F80623735E9A420ADC12
:105F0000394628468CF0ACF80028E6D1CBE710F0F3
:105F1000060FDDD1E1E73A462846054B08218CF013
:105F20000FF8C0E7E07D0020F82800205065002031
:105F3000F0DC120870B588B005460E468CF0B6F954
:105F4000044648B1AB68012B01D09B0604D51B4A1F
:105F500043F60853D35C13B9204608B070BD07AAB6
:105F600006A9174868F0E0FE0028F5D0DDED077AB5
:105F70009FED147AF4EEC77AF1EE10FAECD80DA387
:105F8000D3E9002317EE900ACDE90423FEF7F4FAD3
:105F9000DDED067A0C4BFDEEE77ACDE902013246E3
:105FA0002846CDED007A20218BF0CAFF0024D3E7EC
:105FB000AFF30080000000403333E33FF8280020B7
:105FC000E44F00209A99193F50E012082DE9F04360
:105FD00083B00646884619F0BFFB0368D3F8C43087
:105FE00005469847002800F091802B6828469B6B57
:105FF0009847044678B924F04BFE2146074622F024
:1060000041FBC0B2C0EB401007EB800090F8894024
:10601000002C00F08580804F44F2A87243F2E053D8
:10602000B85817F803900368A8F10101B1FA81F19B
:106030001B6949099847044600285ED00121304673
:10604000FFF7C6FB044600285CD043F2DA53FB5C42
:1060500003F01403142B7CD059F066FB1F2159F078
:10606000A9F96E4B002800F0B9801B78002B40F096
:10607000AE80B368002B45D0012B01D0DC0655D58E
:10608000D5ED567A95ED550A20EE270A21F1EEF965
:1060900042F2F843DFED627AFB5EDFED626A60EEAA
:1060A000277A07EE103A67EEA67AB8EEC77AF4EED2
:1060B000C77AF1EE10FA60DCB368012B36D143F2F7
:1060C000FD53FB5CDB0650D442F23853FB56002BE9
:1060D0005BD043F2DC1342F23A52FB58BA5EB3F99A
:1060E00006309A4251DD504B009330464F4B01220F
:1060F00040218BF025FF002404E030464C4A01216A
:106100008CF0B2F8204603B0BDE8F0830446494A5B
:10611000304601218CF0A8F8204603B0BDE8F0839A
:106120003046454A01218CF09FF8EBE7980617D4DA
:106130005906C9D4414B424A1B68986C03689B6955
:1061400093425FD14146304603B0BDE8F0438CF046
:10615000A9BC30463B4A01218CF086F80024D1E7E7
:1061600043F2FD52BA5CD206E2D53046364B0122EC
:1061700020218BF0E5FE0024C4E73046334B01229A
:1061800010218BF0DDFE0024BCE7B8F1010F03D134
:1061900009F0EF03042BCDD043F2DC131E48FB586B
:1061A000B3F9083000EE103AB8EEC00A00F08CFAED
:1061B000B5EEC00AF1EE10FA12DD1B4B009330462B
:1061C000234B012240218BF0BBFE00249AE730468E
:1061D000204A01218CF048F8002493E7187048E722
:1061E00044F2A873F8580368DB68984710B9B9F10E
:1061F0000B0F9FD143F2DC13FB58B3F90830002B8F
:10620000DBDC97E7984701289CD10146124A3046CB
:106210008CF02AF8002475E7F82800207087002009
:10622000E02E65420000C842C0DC1208DCDC120827
:1062300080DC120890DF12086CDC1208A87A0020BB
:106240005555000848DF120880DE1208ACDC120841
:10625000B4DC120894DC1208CCDC12082DE9F04101
:10626000544D2B78DBB9544F43F204644FF00108CE
:106270003C5985F8008094F868401CB12B7020468A
:10628000BDE8F0818DF0E0F8044660B94B4A287013
:10629000137843F0010313702046BDE8F081002419
:1062A0002046BDE8F08148F091FC414647F09CFF54
:1062B000384607F007F9424B0B2683F804803DF07F
:1062C00077FF3DF0C1FE013EF9D13B4800F0F8FEFA
:1062D00019F042FA43F22C638269FA5090F8503177
:1062E000DA07804658D59B0747D50021324800F091
:1062F0006DFF314814F0DEFB014632488AF0C0FBE6
:1063000098F88030304A43F00403126888F88030EF
:10631000906C01212FF092FC43F638532648FA5C2A
:106320006FF34102FA5413F05BF943F20463012165
:10633000F85886F05BFE48F049FC43F2E05343F224
:10634000E152F95CBA5C48F0ADF81B4807F0ACF8D4
:10635000002645F0B1FB44F079FF2E7094F0B0F9BF
:106360001A4BD9789A7843F6A03566F3410142F08A
:106370002002D97078519A7081E731460E4805F0B5
:1063800007FA134884F0A6FEDFED127A124B20EED6
:10639000270A83ED000AA8E70368D3F8E03098479E
:1063A00048F014FC3C2148F0A1FB0B4B00221A6082
:1063B0009BE700BFF0280020F8280020FC7D00208B
:1063C000E07D0020C8570020A87A0020D05E002081
:1063D000646400200AD7233CE45E00202DE9F047E6
:1063E00043F20463374EF35893F8683084B023B90E
:1063F0000125284604B0BDE8F0878DF091F80546E8
:106400000028F6D019F0A8F9814624F041FCD9F80B
:1064100000308246D3F8A0304846984718B19AF920
:106420005C30022B36D044F2A8732748F3588342DD
:106430002CD00AF035FF0121224807F07FFA012114
:10644000204807F093F943F204630021F05886F0E6
:10645000CDFD1E4837F0ACF848F0B8FB002147F0FE
:10646000C3FE99F880301A4A6FF38203126889F8E4
:106470008030906C00212FF0E1FB164B9A78284673
:106480006FF345129A7004B0BDE8F08718460AF021
:10649000FBFED0E70027002401E0032CC3D05FFA05
:1064A00084F8414601AA484601970297039719F0DC
:1064B00043F801340028F0D0414601AA504623F0A9
:1064C000AFFDEAE7F8280020B47300205C710020DB
:1064D000A87A0020D05E002001486DF0ABB800BF64
:1064E0005065002010B543F2D852835CC3F34014CA
:1064F0008C4203D061F34513835401B910BD48F0B9
:1065000065FB0F21BDE8104048F0F0BA43F2146279
:1065100082588A423AD0012938B505460C4625D022
:10652000022910D059B948F051FB1B2148F0DEFA7E
:1065300005F54F501030164A06214EF0B7FA43F2D7
:106540001463EC5038BD012100F040FE48F03EFBE2
:106550001D2148F0CBFA05F54F5010300D4A0621A9
:106560004EF0A4FA43F21463EC5038BD48F02EFB11
:106570001A2148F0BBFA05F54F501030064A0621A3
:106580004EF094FA43F21463EC5038BD704700BFEC
:10659000C4E01208E4E01208D4E0120838B543F26F
:1065A000FD55435D03F001048C4209D061F3000303
:1065B0004355DB070C4604D506F03CFD024B9C72AC
:1065C00038BD06F0E7FBF9E7E07D002043F2FD531C
:1065D00010B4C25C034C61F341022173C2545DF8F4
:1065E000044B7047E07D002010B5044659F09CF83C
:1065F000202158F0DFFE04F5575300309A7E18BF73
:10660000012060F382029A7610BD00BF90ED290A46
:10661000704700BF30B52DED028B43F2FD5383B0C0
:10662000C35C0191DA0704D443F2D953C35C5B071E
:1066300005D49FED220A03B0BDEC028B30BD00F5FE
:106640001C5595ED060ADFED1D0AB7EE001A08EE9F
:10665000101A044633F064FBDFED197A85ED060A63
:10666000B0EEC07AB4EEE77AF1EE10FA1DD49FEDE9
:10667000156AB8EEC88AF7EE007A88EE067A04F555
:10668000155077EEC07A67EE076A67EE877A26EED6
:10669000877AD0ED096AE0EE077A27EE860A20EEC7
:1066A000260A03B0BDEC028B30BD04F51550D0EDC9
:1066B000097AB8EEC80A20EE270ABCE700000000FD
:1066C0000000003400A08C45F8B52DED048B43F29A
:1066D000FD52815C11F0010405D143F2D952054607
:1066E000825C530704D49FED320ABDEC048BF8BDE5
:1066F00042F23C5710EE106A13F0A2F8DFED2D9A2B
:10670000EB5FDFED2B0A07EE900A08EE903AB0EE51
:10671000691A00EE106AB8EEE79A33F001FBF8EE62
:10672000E88A2146E85F4FF4C872B0EE408A33F041
:10673000EFFA39EE687AE853B4EEC78AF1EE10FA50
:1067400017D542F69C73EB5E53BB42F23453EB5EBB
:10675000002BB8BF5B429BB207EE903A38EE478AF7
:10676000F8EEE77A67EE887ABDEC048B87EE870A4D
:10677000F8BD79EE288AF4EEC88AF1EE10FAB2D5A7
:1067800042F2345338EE688AEB5E00EE103AB8EE0F
:10679000C00A79EEE88A20EE088A88EE280AA4E783
:1067A000002BB8BF5B429BB207EE903AD6E700BF22
:1067B0000000000000007A4408B543F204630C4A6C
:1067C000C05803681B6893420FD190ED290AF6EE7A
:1067D000007A20EE270ADFED077AB4EE670AF1EEC1
:1067E00010FA48BFB0EE670A08BD9847EFE700BF50
:1067F0000D6600080000000010B52DED028B43F679
:106800008C33B7EE001AC358DFED130A93ED2B0A51
:10681000044633F085FA43F2046243F69033A058FD
:10682000E45803680D4A1B689342B0EE408A04F1B5
:1068300028040ED190ED290A38EE408A9FED080A0F
:1068400028EE000ABDEC028B2046BDE8104075F032
:10685000F9B89847F0E700BF000000000D66000897
:1068600000007A4400F5EE531846D3ED046AD2EDE9
:10687000007AD0ED015A91ED006A26EEE77A67EED4
:10688000A57AA6EE257AE6EE267A81ED007AC2EDAB
:10689000007A704742F69C73C35E2BB183EAE370C3
:1068A000A0EBE37080B2704742F23453C05E002820
:1068B000B8BF404280B2704738B543F204654359CF
:1068C00093F86830002B50D043F2D853C356002BB6
:1068D0004CDB44F2A8730446C0580368DB68984751
:1068E000002842D143F2E053E35C0B2B3FD043F648
:1068F00090339FED277AE358D3ED4A7AF0EEE77AAA
:10690000F4EEC77AF1EE10FA2FD5605938304DF019
:10691000B1FBB7EE001A90ED000ADFED1E0A33F06E
:10692000FFF9B5EEC00AF1EE10FA1EDD04F56D5068
:106930002C3084F0D3FBDFED187AB0EEC00AB4EE51
:10694000E70AF1EE10FA10D541F6784340F2E6324C
:10695000E35803F2F313934207D841F67C43E3581C
:1069600003F2F313934203D938BD38BD38BD38BDA7
:1069700060599FED0A0A85F06DFB63599FED070A88
:10698000D3ED0A0A04F5AB50BDE8384077F024BADD
:106990000000003400000000000070420AD7233CD1
:1069A000002070470020704700207047704700BFEC
:1069B00043F2E053C05C704703480860332008216D
:1069C00010701960704700BF1CE1120803685B6C0F
:1069D000184700BF76F02EB960F016B87AF078BF8D
:1069E0008CF0A4BE6AF082BB14F09EBA04F0DCBA4C
:1069F00064F0C0BF13F026B812F0BCBF12F090BF15
:106A000044F088BF30F06CBD47F008BD1CF038B9C9
:106A10005AF0DEBA56F0F4BB57F050BB12F028BB68
:106A200013F082B907F03EB906F000BD05F000BFD3
:106A300005F018BE3DF008BB12F0B6BC40306CF05B
:106A400033BD00BF1AF08EBD61F044BE6AF0C6BE11
:106A50000FF0C4BEFFF730BF12F05CBC8AF036BD49
:106A600067F0D2BF13F01CB803F0FEBC12F0D4BB29
:106A700012F048BB58F0BCBD40F08CBB26F0FCB80F
:106A800010B5044600F5206030F0B2FF43F68C33B9
:106A9000E05803689B6A9847204612F06FFA04F5A5
:106AA000E3500121083018F00DFC204606F0FAFDF5
:106AB000204605F079FE204607F010FA204604F043
:106AC0008BFE204607F0A6F804F56F5030305AF0E0
:106AD00085FA20464FF6FF7113F0D0FB10B1204627
:106AE00002F0B6FD2046BDE8104046F05FBE00BF94
:106AF00006F052BB0AF01EB80AF0C8B90AF060B935
:106B000010B52DED028B44F2A8730446C0580368FB
:106B1000DB69B0EE408A984720B9BDEC028B0024B7
:106B2000204610BD9FED090A04F59840503028EE2C
:106B3000000A0CF08FFB04460028EED00448012127
:106B4000FFF7D0FCBDEC028B204610BD0000C84210
:106B5000F828002030B544F2A8730446C0580368F2
:106B600083B0DB690D46984760B1DFED070A00236B
:106B700004F5984050302946B0EE600A00931A465A
:106B80000CF086FD03B030BD0000000070B52DEDA7
:106B9000068B44F2A8730546C058036884B0DB69CD
:106BA000F0EE409AB0EE60AAF0EE41AAF0EE618AF3
:106BB0000E46B0EE429A98470446F8B19FED128A0D
:106BC00000234FF07E526AEE080A29EE880A6846D2
:106BD0002AEE881A039302930193009234F09EFFE9
:106BE0009FED0A0A05F5984069EE080A694650309B
:106BF000324628EE800A00230CF078FE204604B0CE
:106C0000BDEC068B70BD00BF35FA8E3C0000C8425B
:106C100070B544F2A8730546C058036886B0DB69B6
:106C20000E469847044610B3D6ED006A9FED116AF0
:106C300096ED017AD6ED027ADFED0F0A01220023EC
:106C400005F5984066EE866A27EE067A67EEC67A04
:106C500001925030B0EE600A00931A4603A9CDEDC0
:106C6000036A8DED047ACDED057A0CF087FD2046A0
:106C700006B070BD0000C84200000000F8B5334AFD
:106C8000026044F22473C218064612793AB9C45815
:106C90002CB120462FF05EF820461EF0D1FB43F2C7
:106CA000905243F2D033B058294AF25008B11EF046
:106CB000C3FB284B336006F5DB50183079F0D2FF68
:106CC00006F5BB5706F5BC540C370434083C237951
:106CD0003BB92568284625B12FF03CF828461EF020
:106CE000AFFBA742F2D106F5A350083059F058FF88
:106CF000194BC6F8003A06F5616506F664641C3C5B
:106D000020464CF019FFA542F9D106F68C4706F64D
:106D1000D444083C23793BB92568284625B12FF097
:106D200019F828461EF08CFBA742F2D196F85C3188
:106D30000A4AF26743B9D6F858412CB120462FF0E1
:106D400009F820461EF07CFB3046F8BD7CE51208B1
:106D500098141408A8F9130878A41308045F1308FA
:106D600010B512F0F7FC58F0DFFC0368BDE81040E6
:106D70005B681847FFF7F4BF10B5044606F00EFD38
:106D8000204613F019FA204604F0B2FA2046BDE876
:106D9000104004F035BC00BFFFF7EEBF70B500F542
:106DA00058553035044628461BF0E0F923F070FFB3
:106DB00090F9593003B970BD43F2046304F5CD6610
:106DC000E05838304DF056F9B7EE001A90ED000A51
:106DD000DFED100A32F0A4FF94F9DC36012B2846CF
:106DE00008BF86ED210A00211BF070F8DFED0A7A5A
:106DF0009FED0A7A04F6AC1420EE270AD4ED007A4F
:106E0000A7EE870A304684ED000ABDE8704023F003
:106E1000E9B900BF00000000CDCCCC3D6666663FFE
:106E2000FFF7BCBF10B50121044613F027FA00B9E3
:106E300010BD44F2A873064AD05803681B6A9847ED
:106E40000028F5D12046BDE8104002F0A7BA00BFE7
:106E5000F8280020FFF7E6BF38B50221044613F0FA
:106E60000DFA002840F093800221204613F006FA24
:106E7000002800F08480204602F012FB4FF400311D
:106E8000204613F0FBF9002875D14021204613F06D
:106E9000F5F9002860D14FF48061204613F0EEF937
:106EA000002853D12021204613F0E8F900283FD1D3
:106EB0008021204613F0E2F958B304F547502430FE
:106EC00049F078FB1021204613F0D8F960B94FF64D
:106ED000FF71204613F0D2F900B938BD04F53E50D9
:106EE000BDE838408CF02CBC43F68C3304F5475594
:106EF000E0587DF023F8243504F51B5128462C3149
:106F00004AF008FC04F5185128462C314AF09EFB43
:106F1000DDE74FF48021204613F0B0F90028CCD1F2
:106F20004FF40021204613F0A9F90028C5D1C9E784
:106F300044F2A873E05803689B68984700283BD048
:106F400043F69033E0587FF013FFB1E704F5475064
:106F5000243049F039F8A5E704F54755243528468B
:106F600048F0A0FF41F26843E356002B93D0284637
:106F700049F0BCF88FE7204602F0A2FA85E701212C
:106F8000204613F07BF900287FF475AF76E70121E6
:106F9000204613F073F900287FF466AF44F2A8731B
:106FA000084AD05803681B6A984700287FF45CAFF2
:106FB000204602F0F3F957E720460DF02BFA00289F
:106FC000BED175E7F8280020FFF746BF10B50121B4
:106FD000044613F053F970B98021204613F04EF99E
:106FE00020B104F54750243049F0DEF92046BDE8D1
:106FF000104002F04BBC204602F052FAECE700BF12
:10700000FFF7E4BF10B5044606F0DCF9204605F0B2
:107010009FFF204606F0CAFA2046BDE8104013F054
:10702000A7BF00BFFFF7EEBF38B54FF6FF710446AC
:1070300013F024F9002837D104F54C5043F20465CD
:107040002430FEF789FA635993F86830DBB904F508
:10705000E350083016F026F92046FFF7C5FA6059CC
:1070600042F24E520368A25C1B6942F22071615CDD
:10707000984743F2DC136059E358B3F90E20B3F993
:107080000A1084F0ABFF58F077FC204613F062FF43
:1070900043F2D85344F2D561E35C074ADB43C3F3C0
:1070A000C0136354537138BD43F2D8530721E258DB
:1070B000204602F06DFABFE7E07D0020FFF7B4BF85
:1070C000F8B500F5EE5300F558565A68B26100F570
:1070D000EE53103300F5E4571B68F361044638683B
:1070E00000F58C40503032F0CFFD43F2206235463F
:1070F000A05004F55853B2696A62EA699A62204660
:107100004FF6FF7113F0BAF800B9F8BD3A6820469F
:107110000921BDE8F84002F011BA00BF43F2146340
:10712000C358002B51D043F2D952825CD2074CD5C0
:1071300030B400F55752012B517E43F2D8136FF350
:1071400000015176C35843F2D412B3F90830845881
:1071500007EE903AB4F9083000F558520BBF92EDA3
:10716000066A92ED096AD2ED075AD2ED0A5A07EE85
:10717000103AF8EEE77AB8EEC77A65EEE76A66EE9F
:10718000277A00F5EE52E7EE257A43F2D815E7EEBE
:10719000066A92ED047A92ED016A27EE877AA6EEEE
:1071A000867ABDEEC77A17EE103A238192ED016A16
:1071B00092ED047A425967EE867AE6EEC77AFDEEE2
:1071C000E77A17EE903A138130BC704710B5044649
:1071D0002DED028B61B943F21463C358022B02D028
:1071E000BDEC028B10BD12F0A1F8B0F57A7FF7D399
:1071F000204612F0BBF843F2206240F2E631A35879
:107200001B1A03F2F3138B42EAD900F58C431149A0
:10721000A050503381FB0312DB17C3EB621307EE60
:10722000103ADFED0D7AB8EEC78A28EE278AB0EE65
:10723000480A1FF103FF04F5585383ED090AB0EE25
:10724000480A20F19BF804F5585484ED0A0ABDEC75
:10725000028B10BD1F85EB5135FA8E3C10B50446EC
:1072600012F0F4FA2046102113F008F800B910BD0E
:10727000204602F0DBFB04F5AB50BDE8104076F091
:1072800023BE00BFFFF7EABF2DE9F04F2DED028BC3
:107290000546DA4B45F8083B89B0044620306AF0D1
:1072A00059F8D74BD7491D60284641F05DFA04F1E3
:1072B00058001DF0FDFAD44B0793069408AB13E970
:1072C000060004F5D07044F0E9F804F5137023F0DB
:1072D00069FE04F2345018F08FFD04F5CD6020F003
:1072E000A9FF04F520602FF07BFE04F58C501830C8
:1072F0005FF002FB04F58D50183042F087FF04F573
:10730000A350083059F034FC04F5A55004301BF0AC
:1073100089FE04F5AB5075F051FD04F5DB501830D3
:1073200079F08CFC04F5DC5004F5E0580C3044F0A6
:10733000D5FC404661F0EEF841F60843B34AB44D3F
:107340000026404604F5E359E118E654183009F1E7
:10735000080911603CF0F0FC3146484616F06AFF1F
:1073600004F50B50383074F015FE04F50C50043061
:1073700064F010FB04F50C50303075F05DFB04F543
:107380000C5034307AF0E8FB04F511500C307AF0F0
:107390006BF82B68002B40F0F0829E49204641F0AC
:1073A000E3F99D4B2C6004F515502360383002F052
:1073B000F7FB04F5155104F547500831243046F029
:1073C000D5FC43F2742543F2782204F514530621C8
:1073D0003E3304F54A5063510830A1544CF0E8FDA7
:1073E00004F54A5028304CF0E3FD43F2BC2343F24D
:1073F0002436012704F54B50E750A519103059F0F9
:107400005DF828468AF060FD844BA351281D41F0A9
:1074100085F910B943F22833E75404F54E5043F28E
:10742000D03704303FF05AFE7D4BE35104F55156FE
:10743000274407F128051C362846143552F084FDF0
:10744000B542F9D143F2905507F5D47092F058FF48
:10745000631900220521DA801A81998040F2131005
:107460001DF0E2FF605104F556503C3092F048FFA9
:107470006C4B1A68002A00F07E8243F2D03143F24E
:10748000E05243F2E15368486050002604F557503B
:10749000A6542330E65487F099FF04F55852634907
:1074A0000591B7EE008A049404A9614D82ED068A25
:1074B000104682ED098A303091E80C004FF40071DB
:1074C00000951AF0EFF904F56C50B0EE480A3C3024
:1074D0004CF082FE04F56D500746B0EE480A1C37AA
:1074E00010304CF06DFD38461DF0E8FB43F66C3370
:1074F00043F6A53E4F4AE25004F56D51E01804F5FD
:107500006E5500230B634B638B63CB630B644B643F
:10751000C0F81C9004F80E6005F144001DF0CEFB8D
:107520004FF40043EF66AB6628354349284641F0E7
:107530001BF9424B04F56F5030301D6059F082FC4E
:1075400004F5715018306BF0C9FF04F5735043F621
:10755000145534306CF034FA601942F073FC384B37
:10756000635104F5745028306AF0C0F804F575537F
:107570000433C3F81080334A3349136004F5755758
:107580001846283741F0F0F8FF233B743B76384625
:107590002E4941F0E9F82E4B1D68002D40F0F38193
:1075A00004F59046643604F576503146083004F50B
:1075B0008D481F6008F1140844F06EFE44F23479DF
:1075C00004F58C4080F056F804EB0907404672F051
:1075D00011FB4146384687F013FF1E4B44F8093033
:1075E0001D491E4A062387F854300B78116004F5B4
:1075F0008F471437002B3CD032E000BFA8F91308A6
:10760000A87C00207C581308CD6900080C8A002053
:10761000BC7E0020FCF813087CE5120884E0120808
:107620009814140838870020FCEA1208F16A000850
:1076300018E51208D86A14082C5A1308B07C0020E8
:10764000C0E01208148A0020DC281408CC46140874
:10765000A88A002058321308241D1308787E0020C1
:107660002B4601339BB203EB430211F83220002A70
:10767000F7D1C64AC64915680B80002D40F08081BD
:1076800044F62C6844F2A87304EB080944F2AC7A7F
:1076900044F8039004EB0A00176044F2EC7B06F018
:1076A0007BFBBC4B44F80A3004EB0B0044F6280A81
:1076B00004EB0A0706F070FBB74B44F80B30384672
:1076C00006F06AFB44F67C0204F59143A75044F6A9
:1076D0008400B24AB24944F80A20196044F68C0288
:1076E00044F68801275044F69003AE48A7506050F6
:1076F000AD4AE25004F591401C301DF0DFFA04F56C
:10770000914034301DF0DAFA04F591404FF6FF7ADB
:107710004C301DF0D3FAA6F87850A6F87AA0A6F857
:107720007CA006F180001DF0C9FA44F6640B9F4B63
:107730009F49C6F8CC5030461E6041F015F8A6F8B7
:1077400030A0A6F848A004F80B50737886F87E5055
:1077500065F3000365F3410344F6601265F3C30368
:107760004FF0010A65F3041304F5934B7370584608
:1077700087F81051C7F8345104F802A08DF044FA8C
:1077800044F6BC268B4BCBF80030A01906F004FB66
:1077900044F6F827884BA351E01944F63C3B06F029
:1077A000FBFA04EB0B06854BE351304606F0F4FA86
:1077B00044F67C37824B44F80B30E01986F83C5095
:1077C00086F83D5006F0E8FA44F6B8367D4BE351B2
:1077D000A01906F0E1FA7C4BA35144F60C4204F5E3
:1077E00097430027A1185F679F67DF6708460392EA
:1077F000029144F6504606F0CFFA0299039A734B71
:1078000081F83C5004EB060BA350584606F0C4FA2E
:107810006F4BA35144F690468BF83C50A01906F0EC
:10782000BBFA44F6CC4B6B4BA35104EB0B0006F0B8
:10783000B3FA44F60C56684B44F80B30A01906F026
:10784000ABFA04F59B4344F6A0526449A15104EB02
:10785000020B5F609F6058461E46029206F09CFA3B
:10786000029A5F4FA75060368BF83CA08BF83D50D2
:1078700030461DF023FA06F110001DF01FFA04F542
:107880009C401DF01BFA06F130001DF017FA484627
:1078900006F082FA44F66866524B44F80830A019A4
:1078A00006F07AFA44F618794F4BA35104F59D403F
:1078B00004EB090B24300FF0B7FA44F65878584619
:1078C00006F06AFA04EB0806484B8BF83C50304649
:1078D00044F8093044F6A87B06F05EFA04EB0B038B
:1078E000434A44F80820184686F83C5086F83D5034
:1078F00044F6E879029306F04FFA029B3D4A83F87A
:107900003C5004EB090804F5A04644F80B20283647
:10791000404606F041FA44F80970304688F83CA029
:1079200088F83D501DF0CAF906F110001DF0C6F9A7
:1079300006F120001DF0C2F906F130001DF0BEF97D
:107940002D4B44F8093004F5A04088F889A0743024
:107950000AF036FC04F5A240343010F043FA04F586
:1079600058522046137843F00303137009B0BDEC5E
:10797000028BBDE8F08F1F607FE5204892F07EFE0D
:107980001F4892F07BFE1F4892F078FE3C7E00205C
:10799000747E0020B0371308203813088C39130880
:1079A000F56A0008F96A0008FD6A0008947D002065
:1079B00014B11308583A1308FC391308003B130894
:1079C0006C3B1308D83B13083C3C1308403E13089B
:1079D000A43E13087C3F1308E83F130854401308E3
:1079E000A0411308E442130874421308943A1308A0
:1079F00054461308183F13080842130820E51208DC
:107A000058E5120834E5120838B5054A054B1468E4
:107A100025680A462D6801462046A847002038BD43
:107A2000A87A0020F828002010B592F0EDFF064C4F
:107A3000064B18602046FFF727FC2046044A0549FC
:107A4000BDE810401FF172B9F8280020A87A002084
:107A5000989200207D6C000801207047FA20704742
:107A6000024A42F2FE43D05C704700BFF828002073
:107A7000044A43F21463D058A0F10100B0FA80F038
:107A800040097047F8280020044A43F21463D05894
:107A9000A0F10200B0FA80F040097047F8280020F9
:107AA000014812F00DBC00BFF82800202DE9F0417C
:107AB00000F11C010EC941F4E05142F4E05243F4DC
:107AC000E053C1610262436204463FF0EFFB0646A9
:107AD00020B190F90530002B40F09080DFF89081C4
:107AE00098F900303BB1E269236A42F0800243F02A
:107AF0008003E2612362594D43F2D953EB5C5F0787
:107B000007D5E269236A42F4803243F48033E261AC
:107B10002362534867F06EF918B1E36943F080635C
:107B2000E361504B1F68002F00F08D80192138460B
:107B300043F060FAE369002869D143F4C04343F29B
:107B4000E052E361AB5C162B09D80122464902FAE8
:107B500003F3194000296DD1444A134275D14048BE
:107B600067F058F918B1236A43F08063236243F247
:107B7000D953EB5C580704D543F2FD53EB5CD907AE
:107B800053D546B1336833B13379DA0703D5636A25
:107B900043F04003636298F9003023B144F28C63F0
:107BA000EB5C002B36D12E4867F03EF918B9636ABA
:107BB00043F08063636244F2FC53EB5C013B012BB6
:107BC0000BD804F11C010EC941F4800142F480027B
:107BD00043F48003E1612262636243F27C23EB5C45
:107BE000DB0720D5236A43F480732362DFB1384674
:107BF000192143F027FA90B9BDE8F081E269236AC0
:107C000042F0400243F04003E261236266E743F43E
:107C1000807392E7636A43F080036362C3E7636A39
:107C200043F480736362BDE8F081636A43F4803398
:107C30006362A6E7226A636A42F4005243F4005387
:107C4000226263628BE7E36977E7626A236A42F440
:107C5000C04243F4C0436262236280E7F8280020F8
:107C6000E44F0020847E002004A05000F8022F0082
:107C7000F86E002070B54FF4FC700D4616461DF0EE
:107C8000D9FB32460446294650F088F9014B23605F
:107C9000204670BD00ED120808B590F88C3099426E
:107CA00003DC243150F8210008BD46F001F816220B
:107CB0004FF4802145F0AAFF002008BD08B590F8D8
:107CC0008C30994203DC243150F8210008BD45F086
:107CD000EFFF0F224FF4802145F098FF002008BDF0
:107CE000002070470020704700207047F030704738
:107CF00000F5A470704700BF00F5D070704700BF5A
:107D0000032070470F4B43F2E0529A5C172A16D8B3
:107D100001200D4900FA02F2114000290BBF50204A
:107D200058201021182143F204629B5823B193F884
:107D300068300BB141F0C00040F0010070475020A6
:107D40001021F0E7F8280020F800AB00014B18786C
:107D5000704700BFF84D0020034A42F21073D0561E
:107D6000003018BF01207047F8280020024A42F274
:107D70000253D056704700BFF8280020024A43F251
:107D8000D853D05CC0097047F8280020704700BF66
:107D9000F0B595B0044603A81CF090FF44F2A87318
:107DA0001A4AD058036803A99B6B984708B915B0C5
:107DB000F0BD247C92F084FCDDED047A9FED147A12
:107DC0000790F8EEE77A002167EE877A3323962250
:107DD00020460192059E069D0B910C910D910E91EE
:107DE0000F9110911191129100934FF6F8770024A2
:107DF00007AA5721CDED0A7A08960995ADF84C707F
:107E00008DF84E404DF0B6FC15B0F0BDF8280020BE
:107E10000AD7233C0F4A43F20463D058C8B100B5D7
:107E2000383083B04CF026F9B7EE001A90ED000A16
:107E3000DFED090A31F074FFDFED087A20EE270A42
:107E4000FDEEC07ACDED017ABDF9040003B05DF816
:107E500004FB7047F8280020000000000000C84222
:107E600010B504468BF076FC20B12146BDE81040E9
:107E70008BF03ABC10BD00BF014807F065BD00BFE4
:107E80002071002070B542F214730B4CE358DB07ED
:107E900005460E46144603D51146084887F0BEFE37
:107EA000214607488CF078F8224631462846BDE83E
:107EB000704056F00BB800BFF82800202C7000204E
:107EC000A058002010B5044650F0E8FE054812F016
:107ED000F7F9054A034606212046BDE8104050F058
:107EE000C5BE00BFF8280020ECEB120838B50446E8
:107EF0000D4692F0E5FB43F2F053044AD050294678
:107F00002046BDE838404FF021BC00BFF8280020D3
:107F100010B443F2D012044CA35C0133A3545DF8B7
:107F2000044B4FF0B1BB00BFF828002010B5084645
:107F30000C461DF0F7F908B9042010BD214602488F
:107F400002F0ECFE002010BDAC7A0020014803F0E6
:107F50001FBC00BFF8280020014803F099BB00BFF8
:107F6000F828002038B58B8BCD2B0C46054605D064
:107F700021462846BDE838404FF0B4BB0D4A0E48B4
:107F800043F6F233D15C59F02FF802460028EFD1C6
:107F900094ED020ADFED097A0948DFED0A0A11467D
:107FA00020EE270A02F04CFE21462846BDE8384064
:107FB0004FF098BBF8280020E86400200AD7233C43
:107FC000AC7A00200000000038B50C464B7A897A64
:107FD000E27A43EA012343EA02439D2B054605D09A
:107FE00021462846BDE838404FF0FEBA0E4A0F48F9
:107FF00043F6F233D15C58F0F7FF02460028EFD188
:10800000D4ED057A9FED0A0A0A48DFED0B0AF8EE77
:10801000E77A114627EE800A02F012FE2146284632
:10802000BDE838404FF0E0BAF8280020E8640020AE
:108030000AD7233CAC7A00200000000038B50A4A79
:1080400043F68853D3563BB94FF0DCFA40F6CD14D3
:1080500000252043294338BD4FF0D4FA40F6CD34F3
:1080600000252043294338BDF828002010B50446D8
:108070001DF0E6F9204610BD38B50D4C43F2D8533B
:10808000E356002B08DB44F2A875605903681B6BAC
:10809000984718B1042038BD012038BD60590368E5
:1080A000DB6A9847002814BF0320022038BD00BFB8
:1080B000F828002038B5F7EE000A91ED050A0C46C5
:1080C000054631F0A9FC28B921462846BDE83840CC
:1080D00053F07EB929460248BDE8384003F08EBB14
:1080E000F82800200B7ADB0706D50448CB6841F658
:1080F000AC5282581344CB60704700BFF828002070
:10810000044B187828B9044A43F2DA53D05CC0F320
:1081100080107047AC7C0020F82800202DE9F04347
:108120002DED048B404C43F2D9538FB0E35C9B069A
:1081300075D543F68C330646E0589FED3C0A9FED1B
:108140003C8A3C3035F028F844F2A87361EE087A96
:10815000E558CDED050AFDEEE77A2B688DED061AA0
:108160008DED040ACDED037ADB6B96F81090BDF926
:108170000C70284660EE888A20EE089A984707EE31
:10818000900AF8EEE77A2B6867EE887A1B6CFDEEB2
:10819000E77A2846CDED037ABDF90C60984707EEE3
:1081A000900AF8EE677A9FED237A27EE888A43F6E5
:1081B0009033B4EEC78AF1EE10FA48BFFCEEC87AED
:1081C000E05846BFCDED037ABDF80C804FF6FF783E
:1081D0007EF0F8F82B6828465B6CB0EE408A984732
:1081E000DFED137A8DED079AB72220EE270A28EEED
:1081F000278A1A23002401924846009307AA3E21A9
:10820000CDED088AADF83070ADF83260ADF834804D
:108210008DED0B0A8DED098A0A944DF0ABFA0FB083
:10822000BDEC048BBDE8F083F82800209F0CB3451B
:108230000AD7233C00FF7F47F0B52DED068B484C55
:1082400044F2A87506466059036897B0DB69984701
:10825000002851D044F68C43E35C012B68D0022BFC
:108260004ED043F694339FED3F0AE058483034F047
:1082700093FF6359CDED040A5B698DED051A18680B
:10828000B0EE409A00F590709FED360A8DED039A9E
:10829000F0EE418AB0EE608A34F07EFFF1EE688A3B
:1082A000F0EE40AAF0EE609AB1EE41AA4FF47C677E
:1082B000357C92F005FA8C22332300240990019238
:1082C00028460093012509AA55218DED0A9A8DEDC6
:1082D0000B8ACDED0C8ACDED0DAACDED0E9A8DED6C
:1082E0000FAAADF85470109411941294139414942E
:1082F0008DF856504DF03EFA17B0BDEC068BF0BD30
:1083000063599FED180A5B699FED178A1868DFEDC6
:10831000178A00F5907034F03FFFB0EE489AF0EE07
:1083200040AAF0EE609AB1EE41AA40F6C777BFE7E7
:1083300043F694339FED0B0AE058DFED0B9A9FED67
:108340000BAA483034F028FFF0EE69AAB0EE409A4C
:10835000B0EE608AF1EE418A40F6F877A8E700BFF8
:10836000F82800200AD7233C00000000000000800D
:108370000B4B43F2FD529A5CD10703D443F63531DF
:10838000595C09B10520704712F01E0FFAD143F273
:10839000D8529B56002BB4BF03200420704700BF67
:1083A000F828002008B5084A42F24C53D356032B54
:1083B00003D0BDE8084052F057BB044A022150F0F8
:1083C00055FC042008BD00BFF8280020F8EB120877
:1083D000094B42F214729A5892070BD543F6603259
:1083E000DFED067A9B5800EE103AB8EEC00A20EE98
:1083F000270A70474EF052BFF82800200AD7233CC6
:108400002DE9F04F394CDFF8F4B0394EDFF8F0A029
:108410008DB0ABF104098046E71C0125B6F90030A8
:108420006A1E1341DB070BD4A74206D014F8015B88
:10843000F4E798F810004CF003FE0DB0BDE8F08FA3
:1084400098F8100003924DF07FFE029098F810000B
:108450004EF09CFC029B039A19308342E9D3032A15
:10846000E2D8DFE802F02D362202DBF8003060337C
:10847000002BD9D01A68596805929A69D3F80CE094
:108480000691079259691A6998F8100009926223B7
:10849000019319230A91009305AAC221CDF820E087
:1084A0008DF82C504DF066F9BEE7D9F8000003684E
:1084B0001B69534517D100F5D07000F13803D7E799
:1084C000D9F800000B4A03689B6893420BD1F03047
:1084D000F3E7D9F80000084A0368DB68934202D149
:1084E00000F5A470E9E79847E7E700BFD1ED12086F
:1084F000504E0020ED7C0008F17C000888640020CC
:10850000F97C0008F0B5A1F1190383B00446212BD2
:1085100057D8DFE803F02E5656565656565656563E
:108520002E56563F5656565656565656565656562A
:108530005656565632562E2EA06A03681B6A984726
:108540000746B7F5005F207C6BD24EF01FFC26304B
:10855000B84256D802AA002322F8023D372120460D
:1085600052F01CF828B1217CBDF8062030466DF091
:10857000D5FA0125284603B0F0BD90F8F55135B382
:10858000207C4EF003FC207C4CF05AFD0025284650
:1085900003B0F0BD90F8F531002BF1D1806A03688B
:1085A0001B6A98470546B5F5005F207C33D34EF033
:1085B000EDFB217C1C4844F035FA0125284603B028
:1085C000F0BD53F04BFC0546284603B0F0BD806A71
:1085D00003681B6A98470646B6F5005F207C14D3F3
:1085E0004EF0D4FB217C114871F01CFC104B1E682E
:1085F000002EBED094F8F531002B9DD0207C4EF09B
:10860000C5FB207C4CF01CFDB4E74EF0BFFB2630D0
:10861000B042E7D9B7E74EF0B9FB1230A842C8D94B
:10862000B1E74EF0B3FB95E7806600208C6F002029
:10863000A08A0020014811F037BE00BFF8280020B2
:10864000024A43F2E053D05C704700BFF828002094
:10865000034A43F2D953D05CC0F34010704700BFC7
:10866000F828002070B544F2A8733C4D2DED028B24
:108670000646E85891ED018A036888B0DB690C462C
:10868000984750B9BDEEC88A18EE103ADB0704D4FB
:10869000022008B0BDEC028B70BD6169206931F029
:1086A000AFFD0028F4D004A81CF008FBD4ED067A36
:1086B0009FED2B7A226963690692F0EEE77AF4EE79
:1086C000C77AF1EE10FA0793E2DC304603AA94F879
:1086D000201055F0B7FD0028DAD09FED227AD4EDB6
:1086E000067A039A67EE877A04A8FDEEE77A17EE1A
:1086F000901A1CF023FB1C4904A81CF01FFE034623
:108700000028C5D1DFED190A00900246B0EE600ADC
:1087100004A917480AF0BCFF08B90420B9E744F2DD
:10872000A873E8580368DB699847044608B100203D
:10873000AFE702220421094805F0CAFE0028ECD068
:10874000DFED0A0A009404A9B0EE600A234622462F
:1087500007480AF09DFF0028DFD0E8E7F82800204E
:10876000001CA2470000C842546400200000000022
:10877000487500208B8B202B05D0C02B01D1FFF733
:1087800071BF53F09FB8D1ED007AF5EEC07AF1EEEB
:1087900010FA14DD9FED0B7AF4EEC77AF1EE10FAC1
:1087A0000DD8FCEEE77A82B0CDED017A06499DF84E
:1087B000043042F6AA7200208B5202B070470320A8
:1087C000704700BF00007F43F8280020F0B58B8B76
:1087D000BD2B87B000F0CA810C4602461DD940F679
:1087E000D8118B423DD040F284804AF212418B4234
:1087F00049D040F29B804AF213418B4200F0AF8097
:108800004AF268618B4225D1CC488AF0FFFE0028ED
:1088100040F0CD81042007B0F0BD162B00F0708130
:1088200010D8142B00F0BA8100F2AF81112B11D1B6
:1088300002220521C24805F04BFE0028EAD00020A4
:1088400007B0F0BD732B00F02881B22B00F0FF8041
:10885000202B34D02146104607B0BDE8F04054F03C
:10886000EFBDD4ED017AB748FCEEE77ACDED037A9F
:108870009DF80C30012B0CBF002101216DF0DCFDB7
:10888000002007B0F0BDAE4E43F2FD53F05C10F097
:108890000105D4D143F20463F35893F86870002FB4
:1088A00000F0CA8143F2D853F356002BC0F2AE81D8
:1088B00030460222092105F00BFE2846E1E7D1ED02
:1088C000007AF5EEC07AF1EE10FAA3DD9FED9E7A04
:1088D000F4EEC77AF1EE10FA9CD8FCEEE77A9849EC
:1088E000CDED037A42F6AA729DF80C308B5200202F
:1088F000C7E7D12B00F08980B3F5967F65D0D02BE8
:10890000A8D1D4ED007AFCEEE77ACDED037ABDF87C
:108910000C10012900F06181C0F0698102297FF407
:1089200079AF874803F056FC0020AAE74AF21141CC
:108930008B428FD1824843F2FD53C35CD9073FF588
:108940007EAF0222052105F0C3FD00287FF477AF3A
:10895000022211467A4805F0BBFD002091E7784BD2
:1089600043F2FD529A5CD2073FF569AF43F20462CD
:108970009A5892F86820002A3FF461AF43F2D85227
:108980009A56002AC0F28681D4ED007A9FED6F7A64
:10899000F0EEE77AF4EEC77AF1EE10FA07D443F27C
:1089A000E0529B5C03F0EF03042B3FF448AF02223C
:1089B0001121634805F08CFD0028C9D0644840F6B9
:1089C000C41108F04FFD00205BE75D4C43F20463E7
:1089D000E35893F86830002B3FF41CAF02220321C8
:1089E000204605F075FD00283FF414AF0121204614
:1089F000FDF778FD44F66403E35C012B3FF41FAF01
:108A0000544836F0CBFD00203BE7D4ED046A94EDEA
:108A1000017AD4ED007AD4ED030A94ED020A4848B5
:108A2000FCEEE66ABCEEC77AFCEEE77ACDED056AAD
:108A30009DF814308DED037ACDED047A1146009344
:108A40009DF810209DF80C3010F0ECF919E7D1EDED
:108A5000017AF5EEC07AF1EE10FA7FF7DBAE91ED18
:108A6000007ADFED3D6AB4EEE67AF1EE10FA00F33B
:108A7000EA80DFED3A6A9FED3A0A314AB4EEE67ACF
:108A800043F69433F1EE10FA27EE800AD05840F303
:108A9000B98080F075FD0020F3E691ED000AB5EE97
:108AA000C00AF1EE10FAFFF6B5AEDFED2E7AB4EEA5
:108AB000E70AF1EE10FA3FF6ADAED1ED037A9FED85
:108AC000237AF0EEE76AF4EEC76AF1EE10FA40F1AD
:108AD000C680DFED1E6A94ED027AD4ED010A2248C9
:108AE000F4EEE67AFDEEC77AF1EE10FACDED037AF8
:108AF000ACBF012200229DF90C1002F0A1F89EE605
:108B0000D1ED027ADFED116A91ED060A9FED147A3C
:108B10000B4AF0EEE77AF4EEE67A44F2A873F1EE4F
:108B200010FA4CBF0121002120EE070AD05812F0A4
:108B300005F800283FF46EAE81E600BF78580020AB
:108B4000F82800206066002000007F430000003409
:108B5000F07300205C7100209A9939403333F33F61
:108B60000000C8420000B443AC7A00204C4836F004
:108B70002BFD00283FF44EAE02220321494805F0A8
:108B8000A7FC00287FF45BAE44E602220921454899
:108B900005F09EFC00283FF43DAE50E6022206217F
:108BA000404805F095FC00283FF434AE47E6D4ED8C
:108BB000017AFCEEE77ACDED037A9DF80C30012BBB
:108BC00061D0002B59D0022B7FF424AE364894EDAF
:108BD000030A8AF06FFD002053E6344860F012F873
:108BE00045F0F4FF322145F081FF002049E60021E5
:108BF0002E4860F007F845F0E9FF312145F076FF97
:108C000000203EE680F0B2FC00203AE60222052178
:108C1000304605F05DFC00283FF411AE94ED000AEB
:108C2000DFED237A44F2A87320EE270AF0580121E1
:108C300011F084FF284624E6012211461D48FDF765
:108C40000DFB38461DE6174A9FED190A43F694338B
:108C500027EE800AD05880F0A1FC002011E6B0EE8B
:108C6000670AF7EE000A30F0D7FE00283FF4D2ADD5
:108C700094ED000AD4ED037A2BE70A4A42F68C738E
:108C80000020D054FDE5084894ED020A8AF0FCFC6F
:108C90000020F6E508210748FDF7A0FB0020F0E5DD
:108CA0005C710020F8280020785800203C660020E5
:108CB0000000C8421C5C002091ED007AF6EE007ABC
:108CC000B4EEE77AF1EE10FA01DC0420704708B543
:108CD00005210248FDF782FB002008BD1C5C002036
:108CE0002DE9F0432DED028B05464B7A887ACA7A3E
:108CF00043EA002343EA0243872B9FB00C4600F26D
:108D0000B080862B80F04F82522B00F02E8140F2F3
:108D1000B780562B00F082816D2B00F03A82542BE5
:108D200040F00682CD78352D28BF3525352200212B
:108D30000EA821F1C7F92A460EA804F10C0121F171
:108D40009BF944F2A873AD4AD0580368DB69984791
:108D5000002800F090809DF86C50012D03D0EB1F8F
:108D6000022B00F28880BDF8684014F4E07F00F028
:108D70008280002314F007060693079308931CD102
:108D80009FED9F6ADDED106A9DED117ADDED0F7AA2
:108D900066EE866A27EE467A67EE867AA5F10803C4
:108DA000012BCDED076A8DED087ACDED067A40F204
:108DB000E782EB1F022B40F29382002314F0380766
:108DC0000A930B930C9318D19FED8D6ADDED136A16
:108DD0009DED147ADDED127A66EE866A27EE467A0C
:108DE00067EE867AA5F10803012BCDED0B6A8DEDB8
:108DF0000C7ACDED0A7A40F2C98214F4806240F018
:108E0000FB819DED180A9FED7F7ADFED7D7A20EEE4
:108E1000070AA5F10801012920EE270A8CBF0021CD
:108E2000012114F4006440F0E481DDED190A9FEDA6
:108E3000757ADFED737A60EE870A60EEA70A002E7E
:108E400000F0DE81BFB9B4FA84F30120B2FA82F2F5
:108E5000009101905B0952090AA96B480AF08EFC47
:108E600009E0F32B00F069816FD8952B40F05E810B
:108E700066487EF055FD1FB0BDEC028BBDE8F08367
:108E8000002B00F04481452B40F052815B4ECA79A3
:108E900006F51453B3F900309A42ECD1CA780B2A84
:108EA0004FF0000728BF0B220EA80C310F970E972A
:108EB000CDF83F7021F1E0F842F2FE439DF84220E8
:108EC000F35E9A42D7D1BDF93C80B845D3DB91F02F
:108ED000F7FB43F2D4130446F158BDF93A209FED55
:108EE0004C0A4FF47A7328468DE8900055F0C2F989
:108EF00043F2D813BDF93820F1589FED450A00948C
:108F00000123019328464FF47A7355F0B3F943F2E5
:108F1000DC130094F1589FED3F0A019742463B460F
:108F2000284655F0A7F943F2E013BDF93E20F15869
:108F30009FED370A4FF47A738DE89000284655F07C
:108F400099F943F2F053F45095E7F62B07D0C0F0AF
:108F5000EF80A3F51C53113B022B00F2E98022465F
:108F6000297C2D4871F02CFB85E7CD78234E272DE9
:108F700028BF2725272200210EA821F1A3F82A4681
:108F80000EA804F10C0121F177F844F2A873F0580F
:108F90000368DB69984700283FF46DAF9DF85E4099
:108FA00014F0C00F7FF467AF42F21473B7EE001AEB
:108FB000F35803F00403002B14BF4FF001084FF0E7
:108FC000000800F0F680FFEE000A9DED160A30F072
:108FD000A7FE0F9B109F119E129D0A9384F004021E
:108FE0000948DDED150A0B97C2F3800243460AA932
:108FF0000C960D950AF07AFC3DE700BFF82800209A
:109000000000C842E02E654248750020F86E00203E
:109010000000FA4400007A448C6F0020CE78352E90
:1090200028BF3526352200210EA821F14BF8324603
:109030000EA804F10C0121F11FF844F2A873C84AEC
:10904000D0580368DB69984700283FF414AFBDF897
:10905000684014F4E07F3FF40EAF06AF04F007065B
:1090600038461BF02BFE002E00F0F58014F48069CA
:1090700040F0DB809DED188A9FEDBA7A9DF86C5028
:10908000DFEDB97A28EE078A083D012D28EE278A00
:109090008CBF0025012514F4006840F0C380DDED8D
:1090A000198A9FEDB07ADFEDB07A68EE878A68EEB4
:1090B000A78A04F03804002E00F0BB80002C7FF457
:1090C000DAAE9FEDA96ADDED126A9DED137ADDED52
:1090D000147A0095B8FA88F3B9FA89F266EE866ACE
:1090E00027EE067A67EEC67A012101915B095209E3
:1090F000F0EE680AB0EE480A0AA99C48CDED0A6A6B
:109100008DED0B7ACDED0C7A0AF038FBB3E6944D79
:10911000CA7905F51453B3F900309A427FF4ABAE27
:1091200091F0CEFA43F2F053E850A4E6A62B30D0EB
:109130002146284654F01CFD9DE6CD783D2D28BFE4
:109140003D253D2200210EA820F1BCFF2A4604F156
:109150000C010EA820F190FF0E9D0F9E109C35B9BA
:109160002EB924B901217E4802F012FB83E60AA839
:109170001BF0A4FD7E4B7A480C9583FB0423E41777
:10918000C4EBA3040AA901220D960B9402F080FA05
:1091900071E60821724811F071F82146024628460E
:1091A0004FF00EFE67E60A467248297C43F08EFDBA
:1091B00061E6DFED710A9DED160A30F0B1FDF6EEC5
:1091C000000AB0EE408A30F027FC40BBF6EE007A91
:1091D000B4EEE78AF1EE10FA43F6943366DD38EE2A
:1091E000678AF35838EE088A93ED080A28EE000AD9
:1091F000EFE6DFED610A22E69FED5F0A002110E64F
:10920000002F5FD0B4FA84F3B2FA82F28DE8420004
:109210005B09520906A955480AF0DEF92BE69FEDD5
:10922000560AD6E6DFED548A43E79FED538A0025C0
:1092300031E7002C5CD0B8FA88F3B9FA89F25B09FF
:1092400052090095F0EE680AB0EE480A39464748E0
:109250000AF01EFA0FE6DDF83C80DDF8409040464B
:10926000494630F0CDFF00283FF405AE284603AA5A
:109270009DF86C1054F0E6FF00283FF4FCADDDEDE6
:10928000117A9FED397A039B009367EE877A0AADD6
:10929000FDEEE77A4A46414617EE903A28461BF023
:1092A00025FD95E80F0087E80F00DFE6F35837EE5D
:1092B000C88A93ED090A38EE088AB0EEC00A20EE9B
:1092C000480A86E6B4FA84F46409B2FA82F301919A
:1092D00000945B090AAA06A924480AF099FACAE58B
:1092E000264881F0F3FE014606A833F02BFF64E523
:1092F00038461BF041FD03283FF4BDAD002338463E
:1093000003A90393049305931BF06AFE00283FF41E
:10931000B2AD9FED156ADDED126A9DED137ADDEDBC
:10932000147A0195B8FA88F25209B9FA89F366EE0F
:10933000866A27EE067A67EEC67A00925B09F0EE3F
:10934000680AB0EE480A03A90AAA0848CDED0A6ADD
:109350008DED0B7ACDED0C7A0AF05AFA8BE500BF51
:10936000F8280020E02E65420000C8424875002021
:109370006766666680660020000000006464002066
:1093800007AA06A90448FDF76DFA12E50BAA0AA977
:109390000148FDF767FA30E5F8280020F0B543F6FC
:1093A0008C370446C0599FED3A0A8DB03C3033F0FB
:1093B000F3FE0CABCDED0A0A8DED0B1A8DED090A0B
:1093C00013E9070003AE86E8070006AB9DED050A2A
:1093D00083E8070004F5475530F040FC243531465A
:1093E00028468DED050A47F039FC43F6903043F2EC
:1093F000046243F2203120586158E359A25800908A
:10940000284647F095FF20464FF4805110F036FF74
:1094100008B90DB0F0BDE0591E4A03689B6893423D
:1094200030D1F03000F138028921284647F0E2FEC1
:1094300043F68C33184AE0580368DB68934225D121
:1094400000F5A47000F138028A21284647F0D2FEC8
:1094500043F68C33114AE05803681B69934213D1D9
:1094600000F5D07000F138028B21284647F0C2FE8B
:1094700043F690332846E2588C21603247F0BAFE1A
:109480000DB0F0BD9847CDE79847EBE79847D9E78F
:109490009F0CB345ED7C0008F17C0008F97C0008C6
:1094A00010B500F54754243416F056F916F048F973
:1094B000204647F019FA2046BDE8104047F0AABA06
:1094C00030B589B00023044643F204650622A32088
:1094D0009521019306930293039304930593CDF88A
:1094E0001B308DF806208DF804008DF8051091F0E2
:1094F000EFF86359CDF80700D3F8D820CDF80B105A
:1095000003F1CC00CDF80F204AF0B4FD0368625996
:10951000CDF8133004F562533433D2F8DC201B68E5
:10952000CDF81B2004F5475001A924301B22CDF8AB
:10953000173044F075FE09B030BD00BF70B50D4660
:1095400084B04FF6FF711446064610F097FEE8B15E
:1095500000230322A3209521009301938DF802207C
:10956000029303938DF800008DF8011091F0B0F88C
:10957000CDF8030006F54750CDF8071024306946B2
:1095800010228DF80B50039444F066FE04B070BDB9
:1095900070B50D4684B04FF6FF711446064610F0C4
:1095A0006DFEE8B100230422A320952100930193CE
:1095B0008DF80220029303938DF800008DF80110BE
:1095C00091F086F8CDF8030006F54750CDF8071066
:1095D0002430694610228DF80B50039444F03CFE71
:1095E00004B070BDF0B52DED048B87B000230722C9
:1095F000A32795260093B0EE409AF0EE608AB0EE75
:10960000418A05460C460193029303930493059304
:109610008DF802208DF800708DF8016091F058F8F7
:10962000CDF8030005F54750CDF807102430182277
:1096300069468DF80B408DED039ACDED048A8DEDD2
:10964000058A44F0EDFD07B0BDEC048BF0BD00BF12
:10965000F8B590F85D15CE00731800F5585400EB7E
:1096600083030546227893F8850502F0010200285D
:1096700059D093F88605002858D1AAB1731805EB84
:10968000830393F88605002856D1237860F30003FE
:10969000237045F09BFA237813F0010F0CBF0422CE
:1096A0000022122145F050FA05F5CD6738464FF0FB
:1096B000000126781EF0E6FFC0B2C0EB401005EBBB
:1096C0008000C6F3400690F8F136B3421AD04FF04E
:1096D000000138461EF0D6FFC0B2C0EB401005EBCB
:1096E0008000237890F8F12662F34103237045F05F
:1096F0006DFA237813F0020F0CBF0422002203211D
:1097000045F022FA237895F87824C3F38101914239
:1097100018D062F38303237045F058FA4321BDE863
:10972000F84045F0E3B9002AAFD1BDE793F887359B
:10973000002BA2D0002AB7D1314405EB810191F86A
:109740008705A2E7F8BD00BF2DE9F0412DED0A8B9A
:109750004FF02F088CB00446424668460021B0EE18
:1097600040CAF0EE60BAB0EE41BAF0EE61AAB0EED7
:1097700042AAF0EE629AB0EE439AF0EE638AB0EE3F
:10978000448A20F19FFC95220B23A3218DF8012010
:109790008DF802308DF8001090F09AFF1CEE106AE0
:1097A000CDF803001BEE905A1AEE903A04F547509C
:1097B0001BEE104ACDF80B60CDF80F50CDF81340DA
:1097C000CDF817301AEE107A18EE103A19EE906AAA
:1097D00019EE105A18EE904ACDF807102430424680
:1097E0006946CDF81B70CDF81F60CDF82350CDF839
:1097F0002740CDF82B3044F013FD0CB0BDEC0A8BA4
:10980000BDE8F08170B52DED088B28248AB006469E
:109810000D46224668460021B0EE40BAF0EE60AA3E
:10982000B0EE41AAF0EE619AB0EE429AF0EE628A92
:10983000B0EE438A20F146FC0C239522A3218DF83B
:1098400001208DF802308DF8001090F041FFCDF826
:10985000030006F54750CDF807102430224669462C
:109860008DF80B508DED03BACDED04AA8DED05AA50
:10987000CDED069A8DED079ACDED088A8DED098A1A
:1098800044F0CEFC0AB0BDEC088B70BDF0B500F51D
:109890008C4495B094F900300BB915B0F0BD00239D
:1098A0000546694620460493059306930093019369
:1098B000029303937DF0ECFF02A920467EF00CF8A2
:1098C00004A920467DF0D4FF07A83222002120F110
:1098D000F9FB95220923A3218DF81D208DF81E3058
:1098E0008DF81C1090F0F4FE44F28C63CDF81F004C
:1098F000EB5CCDF8231020468DF827307DF06AFF11
:1099000044F22C6444F2586244F203632E5955F831
:1099100002E0EC5C019A009B8DF8280005F54750A9
:10992000029FCDF84560049D039E8DF84D40CDF813
:109930002930059C069BCDF82D2007A92430322222
:10994000CDF849E0CDF83170CDF83560CDF839501B
:10995000CDF83D40CDF8413044F062FC15B0F0BD8B
:109960002DE9F04724268AB01546814688463246BE
:1099700001A800211C4620F1A5FB95220A23A32162
:109980008DF805208DF806308DF8041090F0A0FEBB
:10999000CDF8070009F54750D5F800A0D5F804C068
:1099A000D5F808E02768CDF80B106568A3688DF836
:1099B0000F803044324601A9CDF810A0CDF814C074
:1099C000CDF818E007970895099344F029FC0AB0F0
:1099D000BDE8F08738B5044600F5475510F070FC37
:1099E000243502460B49284644F04CFB43F2E05331
:1099F00043F2E1522846A25CE15C44F053FD04F5D9
:109A0000E350083013F026FE04F51370BDE838402B
:109A100022F0F4BAECEB120800F5475024307F2214
:109A2000014944F0D3B900BF34EE1208F0B52DED72
:109A3000028B93B012A90023044600F5765041F83A
:109A4000403D0830012242F09BFD08B9504B029383
:109A500044F2A873E0580368DB689847002840F098
:109A6000918043F69033DFED4B7AE35893ED447ADF
:109A7000D3ED4D6A87EE278AFDEEE66ACDED016AE9
:109A8000BDF9047004F54A563C36304603A910F07F
:109A900095F918B945F09AF83D4B03933722002108
:109AA00004A820F10FFBA32295238DF810208DF838
:109AB000113090F00DFE43F2046543F68C33CDF87F
:109AC0001300E3586059D3F8AC20D3F8B030CDF888
:109AD0001B203830CDF81F30CDF817104AF0CAFAE5
